{
  "_format": "hh-sol-artifact-1",
  "contractName": "BasicNft",
  "sourceName": "contracts/BasicNft.sol",
  "abi": [
    {
      "inputs": [],
      "stateMutability": "nonpayable",
      "type": "constructor"
    },
    {
      "anonymous": false,
      "inputs": [
        {
          "indexed": true,
          "internalType": "address",
          "name": "owner",
          "type": "address"
        },
        {
          "indexed": true,
          "internalType": "address",
          "name": "approved",
          "type": "address"
        },
        {
          "indexed": true,
          "internalType": "uint256",
          "name": "tokenId",
          "type": "uint256"
        }
      ],
      "name": "Approval",
      "type": "event"
    },
    {
      "anonymous": false,
      "inputs": [
        {
          "indexed": true,
          "internalType": "address",
          "name": "owner",
          "type": "address"
        },
        {
          "indexed": true,
          "internalType": "address",
          "name": "operator",
          "type": "address"
        },
        {
          "indexed": false,
          "internalType": "bool",
          "name": "approved",
          "type": "bool"
        }
      ],
      "name": "ApprovalForAll",
      "type": "event"
    },
    {
      "anonymous": false,
      "inputs": [
        {
          "indexed": true,
          "internalType": "address",
          "name": "from",
          "type": "address"
        },
        {
          "indexed": true,
          "internalType": "address",
          "name": "to",
          "type": "address"
        },
        {
          "indexed": true,
          "internalType": "uint256",
          "name": "tokenId",
          "type": "uint256"
        }
      ],
      "name": "Transfer",
      "type": "event"
    },
    {
      "inputs": [],
      "name": "TOKEN_URI",
      "outputs": [
        {
          "internalType": "string",
          "name": "",
          "type": "string"
        }
      ],
      "stateMutability": "view",
      "type": "function"
    },
    {
      "inputs": [
        {
          "internalType": "address",
          "name": "to",
          "type": "address"
        },
        {
          "internalType": "uint256",
          "name": "tokenId",
          "type": "uint256"
        }
      ],
      "name": "approve",
      "outputs": [],
      "stateMutability": "nonpayable",
      "type": "function"
    },
    {
      "inputs": [
        {
          "internalType": "address",
          "name": "owner",
          "type": "address"
        }
      ],
      "name": "balanceOf",
      "outputs": [
        {
          "internalType": "uint256",
          "name": "",
          "type": "uint256"
        }
      ],
      "stateMutability": "view",
      "type": "function"
    },
    {
      "inputs": [
        {
          "internalType": "uint256",
          "name": "tokenId",
          "type": "uint256"
        }
      ],
      "name": "getApproved",
      "outputs": [
        {
          "internalType": "address",
          "name": "",
          "type": "address"
        }
      ],
      "stateMutability": "view",
      "type": "function"
    },
    {
      "inputs": [],
      "name": "getTokenId",
      "outputs": [
        {
          "internalType": "uint256",
          "name": "",
          "type": "uint256"
        }
      ],
      "stateMutability": "view",
      "type": "function"
    },
    {
      "inputs": [
        {
          "internalType": "address",
          "name": "owner",
          "type": "address"
        },
        {
          "internalType": "address",
          "name": "operator",
          "type": "address"
        }
      ],
      "name": "isApprovedForAll",
      "outputs": [
        {
          "internalType": "bool",
          "name": "",
          "type": "bool"
        }
      ],
      "stateMutability": "view",
      "type": "function"
    },
    {
      "inputs": [],
      "name": "mintNft",
      "outputs": [
        {
          "internalType": "uint256",
          "name": "",
          "type": "uint256"
        }
      ],
      "stateMutability": "nonpayable",
      "type": "function"
    },
    {
      "inputs": [],
      "name": "name",
      "outputs": [
        {
          "internalType": "string",
          "name": "",
          "type": "string"
        }
      ],
      "stateMutability": "view",
      "type": "function"
    },
    {
      "inputs": [
        {
          "internalType": "uint256",
          "name": "tokenId",
          "type": "uint256"
        }
      ],
      "name": "ownerOf",
      "outputs": [
        {
          "internalType": "address",
          "name": "",
          "type": "address"
        }
      ],
      "stateMutability": "view",
      "type": "function"
    },
    {
      "inputs": [
        {
          "internalType": "address",
          "name": "from",
          "type": "address"
        },
        {
          "internalType": "address",
          "name": "to",
          "type": "address"
        },
        {
          "internalType": "uint256",
          "name": "tokenId",
          "type": "uint256"
        }
      ],
      "name": "safeTransferFrom",
      "outputs": [],
      "stateMutability": "nonpayable",
      "type": "function"
    },
    {
      "inputs": [
        {
          "internalType": "address",
          "name": "from",
          "type": "address"
        },
        {
          "internalType": "address",
          "name": "to",
          "type": "address"
        },
        {
          "internalType": "uint256",
          "name": "tokenId",
          "type": "uint256"
        },
        {
          "internalType": "bytes",
          "name": "data",
          "type": "bytes"
        }
      ],
      "name": "safeTransferFrom",
      "outputs": [],
      "stateMutability": "nonpayable",
      "type": "function"
    },
    {
      "inputs": [
        {
          "internalType": "address",
          "name": "operator",
          "type": "address"
        },
        {
          "internalType": "bool",
          "name": "approved",
          "type": "bool"
        }
      ],
      "name": "setApprovalForAll",
      "outputs": [],
      "stateMutability": "nonpayable",
      "type": "function"
    },
    {
      "inputs": [
        {
          "internalType": "bytes4",
          "name": "interfaceId",
          "type": "bytes4"
        }
      ],
      "name": "supportsInterface",
      "outputs": [
        {
          "internalType": "bool",
          "name": "",
          "type": "bool"
        }
      ],
      "stateMutability": "view",
      "type": "function"
    },
    {
      "inputs": [],
      "name": "symbol",
      "outputs": [
        {
          "internalType": "string",
          "name": "",
          "type": "string"
        }
      ],
      "stateMutability": "view",
      "type": "function"
    },
    {
      "inputs": [
        {
          "internalType": "uint256",
          "name": "",
          "type": "uint256"
        }
      ],
      "name": "tokenURI",
      "outputs": [
        {
          "internalType": "string",
          "name": "",
          "type": "string"
        }
      ],
      "stateMutability": "view",
      "type": "function"
    },
    {
      "inputs": [
        {
          "internalType": "address",
          "name": "from",
          "type": "address"
        },
        {
          "internalType": "address",
          "name": "to",
          "type": "address"
        },
        {
          "internalType": "uint256",
          "name": "tokenId",
          "type": "uint256"
        }
      ],
      "name": "transferFrom",
      "outputs": [],
      "stateMutability": "nonpayable",
      "type": "function"
    }
  ],
  "bytecode": "0x60806040523480156200001157600080fd5b506040518060400160405280600581526020017f446f6769650000000000000000000000000000000000000000000000000000008152506040518060400160405280600381526020017f444f47000000000000000000000000000000000000000000000000000000000081525081600090816200008f91906200032c565b508060019081620000a191906200032c565b505050600060068190555062000413565b600081519050919050565b7f4e487b7100000000000000000000000000000000000000000000000000000000600052604160045260246000fd5b7f4e487b7100000000000000000000000000000000000000000000000000000000600052602260045260246000fd5b600060028204905060018216806200013457607f821691505b6020821081036200014a5762000149620000ec565b5b50919050565b60008190508160005260206000209050919050565b60006020601f8301049050919050565b600082821b905092915050565b600060088302620001b47fffffffffffffffffffffffffffffffffffffffffffffffffffffffffffffffff8262000175565b620001c0868362000175565b95508019841693508086168417925050509392505050565b6000819050919050565b6000819050919050565b60006200020d620002076200020184620001d8565b620001e2565b620001d8565b9050919050565b6000819050919050565b6200022983620001ec565b62000241620002388262000214565b84845462000182565b825550505050565b600090565b6200025862000249565b620002658184846200021e565b505050565b5b818110156200028d57620002816000826200024e565b6001810190506200026b565b5050565b601f821115620002dc57620002a68162000150565b620002b18462000165565b81016020851015620002c1578190505b620002d9620002d08562000165565b8301826200026a565b50505b505050565b600082821c905092915050565b60006200030160001984600802620002e1565b1980831691505092915050565b60006200031c8383620002ee565b9150826002028217905092915050565b6200033782620000b2565b67ffffffffffffffff811115620003535762000352620000bd565b5b6200035f82546200011b565b6200036c82828562000291565b600060209050601f831160018114620003a457600084156200038f578287015190505b6200039b85826200030e565b8655506200040b565b601f198416620003b48662000150565b60005b82811015620003de57848901518255600182019150602085019450602081019050620003b7565b86831015620003fe5784890151620003fa601f891682620002ee565b8355505b6001600288020188555050505b505050505050565b61247080620004236000396000f3fe608060405234801561001057600080fd5b50600436106101005760003560e01c806370a0823111610097578063b88d4fde11610066578063b88d4fde146102ad578063c2229fea146102c9578063c87b56dd146102e7578063e985e9c51461031757610100565b806370a082311461022557806378ce90351461025557806395d89b4114610273578063a22cb4651461029157610100565b8063095ea7b3116100d3578063095ea7b3146101a157806323b872dd146101bd57806342842e0e146101d95780636352211e146101f557610100565b8063010a38f51461010557806301ffc9a71461012357806306fdde0314610153578063081812fc14610171575b600080fd5b61010d610347565b60405161011a91906116ba565b60405180910390f35b61013d60048036038101906101389190611741565b610351565b60405161014a9190611789565b60405180910390f35b61015b610433565b6040516101689190611834565b60405180910390f35b61018b60048036038101906101869190611882565b6104c5565b60405161019891906118f0565b60405180910390f35b6101bb60048036038101906101b69190611937565b61050b565b005b6101d760048036038101906101d29190611977565b610622565b005b6101f360048036038101906101ee9190611977565b610682565b005b61020f600480360381019061020a9190611882565b6106a2565b60405161021c91906118f0565b60405180910390f35b61023f600480360381019061023a91906119ca565b610728565b60405161024c91906116ba565b60405180910390f35b61025d6107df565b60405161026a9190611834565b60405180910390f35b61027b6107fb565b6040516102889190611834565b60405180910390f35b6102ab60048036038101906102a69190611a23565b61088d565b005b6102c760048036038101906102c29190611b98565b6108a3565b005b6102d1610905565b6040516102de91906116ba565b60405180910390f35b61030160048036038101906102fc9190611882565b610935565b60405161030e9190611834565b60405180910390f35b610331600480360381019061032c9190611c1b565b610957565b60405161033e9190611789565b60405180910390f35b6000600654905090565b60007f80ac58cd000000000000000000000000000000000000000000000000000000007bffffffffffffffffffffffffffffffffffffffffffffffffffffffff1916827bffffffffffffffffffffffffffffffffffffffffffffffffffffffff1916148061041c57507f5b5e139f000000000000000000000000000000000000000000000000000000007bffffffffffffffffffffffffffffffffffffffffffffffffffffffff1916827bffffffffffffffffffffffffffffffffffffffffffffffffffffffff1916145b8061042c575061042b826109eb565b5b9050919050565b60606000805461044290611c8a565b80601f016020809104026020016040519081016040528092919081815260200182805461046e90611c8a565b80156104bb5780601f10610490576101008083540402835291602001916104bb565b820191906000526020600020905b81548152906001019060200180831161049e57829003601f168201915b5050505050905090565b60006104d082610a55565b6004600083815260200190815260200160002060009054906101000a900473ffffffffffffffffffffffffffffffffffffffff169050919050565b6000610516826106a2565b90508073ffffffffffffffffffffffffffffffffffffffff168373ffffffffffffffffffffffffffffffffffffffff1603610586576040517f08c379a000000000000000000000000000000000000000000000000000000000815260040161057d90611d2d565b60405180910390fd5b8073ffffffffffffffffffffffffffffffffffffffff166105a5610aa0565b73ffffffffffffffffffffffffffffffffffffffff1614806105d457506105d3816105ce610aa0565b610957565b5b610613576040517f08c379a000000000000000000000000000000000000000000000000000000000815260040161060a90611dbf565b60405180910390fd5b61061d8383610aa8565b505050565b61063361062d610aa0565b82610b61565b610672576040517f08c379a000000000000000000000000000000000000000000000000000000000815260040161066990611e51565b60405180910390fd5b61067d838383610bf6565b505050565b61069d838383604051806020016040528060008152506108a3565b505050565b6000806106ae83610eef565b9050600073ffffffffffffffffffffffffffffffffffffffff168173ffffffffffffffffffffffffffffffffffffffff160361071f576040517f08c379a000000000000000000000000000000000000000000000000000000000815260040161071690611ebd565b60405180910390fd5b80915050919050565b60008073ffffffffffffffffffffffffffffffffffffffff168273ffffffffffffffffffffffffffffffffffffffff1603610798576040517f08c379a000000000000000000000000000000000000000000000000000000000815260040161078f90611f4f565b60405180910390fd5b600360008373ffffffffffffffffffffffffffffffffffffffff1673ffffffffffffffffffffffffffffffffffffffff168152602001908152602001600020549050919050565b6040518060800160405280605781526020016123e46057913981565b60606001805461080a90611c8a565b80601f016020809104026020016040519081016040528092919081815260200182805461083690611c8a565b80156108835780601f1061085857610100808354040283529160200191610883565b820191906000526020600020905b81548152906001019060200180831161086657829003601f168201915b5050505050905090565b61089f610898610aa0565b8383610f2c565b5050565b6108b46108ae610aa0565b83610b61565b6108f3576040517f08c379a00000000000000000000000000000000000000000000000000000000081526004016108ea90611e51565b60405180910390fd5b6108ff84848484611098565b50505050565b6000610913336006546110f4565b6001600660008282546109269190611f9e565b92505081905550600654905090565b60606040518060800160405280605781526020016123e4605791399050919050565b6000600560008473ffffffffffffffffffffffffffffffffffffffff1673ffffffffffffffffffffffffffffffffffffffff16815260200190815260200160002060008373ffffffffffffffffffffffffffffffffffffffff1673ffffffffffffffffffffffffffffffffffffffff16815260200190815260200160002060009054906101000a900460ff16905092915050565b60007f01ffc9a7000000000000000000000000000000000000000000000000000000007bffffffffffffffffffffffffffffffffffffffffffffffffffffffff1916827bffffffffffffffffffffffffffffffffffffffffffffffffffffffff1916149050919050565b610a5e81611112565b610a9d576040517f08c379a0000000000000000000000000000000000000000000000000000000008152600401610a9490611ebd565b60405180910390fd5b50565b600033905090565b816004600083815260200190815260200160002060006101000a81548173ffffffffffffffffffffffffffffffffffffffff021916908373ffffffffffffffffffffffffffffffffffffffff160217905550808273ffffffffffffffffffffffffffffffffffffffff16610b1b836106a2565b73ffffffffffffffffffffffffffffffffffffffff167f8c5be1e5ebec7d5bd14f71427d1e84f3dd0314c0f7b2291e5b200ac8c7c3b92560405160405180910390a45050565b600080610b6d836106a2565b90508073ffffffffffffffffffffffffffffffffffffffff168473ffffffffffffffffffffffffffffffffffffffff161480610baf5750610bae8185610957565b5b80610bed57508373ffffffffffffffffffffffffffffffffffffffff16610bd5846104c5565b73ffffffffffffffffffffffffffffffffffffffff16145b91505092915050565b8273ffffffffffffffffffffffffffffffffffffffff16610c16826106a2565b73ffffffffffffffffffffffffffffffffffffffff1614610c6c576040517f08c379a0000000000000000000000000000000000000000000000000000000008152600401610c6390612044565b60405180910390fd5b600073ffffffffffffffffffffffffffffffffffffffff168273ffffffffffffffffffffffffffffffffffffffff1603610cdb576040517f08c379a0000000000000000000000000000000000000000000000000000000008152600401610cd2906120d6565b60405180910390fd5b610ce88383836001611153565b8273ffffffffffffffffffffffffffffffffffffffff16610d08826106a2565b73ffffffffffffffffffffffffffffffffffffffff1614610d5e576040517f08c379a0000000000000000000000000000000000000000000000000000000008152600401610d5590612044565b60405180910390fd5b6004600082815260200190815260200160002060006101000a81549073ffffffffffffffffffffffffffffffffffffffff02191690556001600360008573ffffffffffffffffffffffffffffffffffffffff1673ffffffffffffffffffffffffffffffffffffffff168152602001908152602001600020600082825403925050819055506001600360008473ffffffffffffffffffffffffffffffffffffffff1673ffffffffffffffffffffffffffffffffffffffff16815260200190815260200160002060008282540192505081905550816002600083815260200190815260200160002060006101000a81548173ffffffffffffffffffffffffffffffffffffffff021916908373ffffffffffffffffffffffffffffffffffffffff160217905550808273ffffffffffffffffffffffffffffffffffffffff168473ffffffffffffffffffffffffffffffffffffffff167fddf252ad1be2c89b69c2b068fc378daa952ba7f163c4a11628f55a4df523b3ef60405160405180910390a4610eea8383836001611279565b505050565b60006002600083815260200190815260200160002060009054906101000a900473ffffffffffffffffffffffffffffffffffffffff169050919050565b8173ffffffffffffffffffffffffffffffffffffffff168373ffffffffffffffffffffffffffffffffffffffff1603610f9a576040517f08c379a0000000000000000000000000000000000000000000000000000000008152600401610f9190612142565b60405180910390fd5b80600560008573ffffffffffffffffffffffffffffffffffffffff1673ffffffffffffffffffffffffffffffffffffffff16815260200190815260200160002060008473ffffffffffffffffffffffffffffffffffffffff1673ffffffffffffffffffffffffffffffffffffffff16815260200190815260200160002060006101000a81548160ff0219169083151502179055508173ffffffffffffffffffffffffffffffffffffffff168373ffffffffffffffffffffffffffffffffffffffff167f17307eab39ab6107e8899845ad3d59bd9653f200f220920489ca2b5937696c318360405161108b9190611789565b60405180910390a3505050565b6110a3848484610bf6565b6110af8484848461127f565b6110ee576040517f08c379a00000000000000000000000000000000000000000000000000000000081526004016110e5906121d4565b60405180910390fd5b50505050565b61110e828260405180602001604052806000815250611406565b5050565b60008073ffffffffffffffffffffffffffffffffffffffff1661113483610eef565b73ffffffffffffffffffffffffffffffffffffffff1614159050919050565b600181111561127357600073ffffffffffffffffffffffffffffffffffffffff168473ffffffffffffffffffffffffffffffffffffffff16146111e75780600360008673ffffffffffffffffffffffffffffffffffffffff1673ffffffffffffffffffffffffffffffffffffffff16815260200190815260200160002060008282546111df91906121f4565b925050819055505b600073ffffffffffffffffffffffffffffffffffffffff168373ffffffffffffffffffffffffffffffffffffffff16146112725780600360008573ffffffffffffffffffffffffffffffffffffffff1673ffffffffffffffffffffffffffffffffffffffff168152602001908152602001600020600082825461126a9190611f9e565b925050819055505b5b50505050565b50505050565b60006112a08473ffffffffffffffffffffffffffffffffffffffff16611461565b156113f9578373ffffffffffffffffffffffffffffffffffffffff1663150b7a026112c9610aa0565b8786866040518563ffffffff1660e01b81526004016112eb949392919061227d565b6020604051808303816000875af192505050801561132757506040513d601f19601f8201168201806040525081019061132491906122de565b60015b6113a9573d8060008114611357576040519150601f19603f3d011682016040523d82523d6000602084013e61135c565b606091505b5060008151036113a1576040517f08c379a0000000000000000000000000000000000000000000000000000000008152600401611398906121d4565b60405180910390fd5b805181602001fd5b63150b7a0260e01b7bffffffffffffffffffffffffffffffffffffffffffffffffffffffff1916817bffffffffffffffffffffffffffffffffffffffffffffffffffffffff1916149150506113fe565b600190505b949350505050565b6114108383611484565b61141d600084848461127f565b61145c576040517f08c379a0000000000000000000000000000000000000000000000000000000008152600401611453906121d4565b60405180910390fd5b505050565b6000808273ffffffffffffffffffffffffffffffffffffffff163b119050919050565b600073ffffffffffffffffffffffffffffffffffffffff168273ffffffffffffffffffffffffffffffffffffffff16036114f3576040517f08c379a00000000000000000000000000000000000000000000000000000000081526004016114ea90612357565b60405180910390fd5b6114fc81611112565b1561153c576040517f08c379a0000000000000000000000000000000000000000000000000000000008152600401611533906123c3565b60405180910390fd5b61154a600083836001611153565b61155381611112565b15611593576040517f08c379a000000000000000000000000000000000000000000000000000000000815260040161158a906123c3565b60405180910390fd5b6001600360008473ffffffffffffffffffffffffffffffffffffffff1673ffffffffffffffffffffffffffffffffffffffff16815260200190815260200160002060008282540192505081905550816002600083815260200190815260200160002060006101000a81548173ffffffffffffffffffffffffffffffffffffffff021916908373ffffffffffffffffffffffffffffffffffffffff160217905550808273ffffffffffffffffffffffffffffffffffffffff16600073ffffffffffffffffffffffffffffffffffffffff167fddf252ad1be2c89b69c2b068fc378daa952ba7f163c4a11628f55a4df523b3ef60405160405180910390a461169d600083836001611279565b5050565b6000819050919050565b6116b4816116a1565b82525050565b60006020820190506116cf60008301846116ab565b92915050565b6000604051905090565b600080fd5b600080fd5b60007fffffffff0000000000000000000000000000000000000000000000000000000082169050919050565b61171e816116e9565b811461172957600080fd5b50565b60008135905061173b81611715565b92915050565b600060208284031215611757576117566116df565b5b60006117658482850161172c565b91505092915050565b60008115159050919050565b6117838161176e565b82525050565b600060208201905061179e600083018461177a565b92915050565b600081519050919050565b600082825260208201905092915050565b60005b838110156117de5780820151818401526020810190506117c3565b60008484015250505050565b6000601f19601f8301169050919050565b6000611806826117a4565b61181081856117af565b93506118208185602086016117c0565b611829816117ea565b840191505092915050565b6000602082019050818103600083015261184e81846117fb565b905092915050565b61185f816116a1565b811461186a57600080fd5b50565b60008135905061187c81611856565b92915050565b600060208284031215611898576118976116df565b5b60006118a68482850161186d565b91505092915050565b600073ffffffffffffffffffffffffffffffffffffffff82169050919050565b60006118da826118af565b9050919050565b6118ea816118cf565b82525050565b600060208201905061190560008301846118e1565b92915050565b611914816118cf565b811461191f57600080fd5b50565b6000813590506119318161190b565b92915050565b6000806040838503121561194e5761194d6116df565b5b600061195c85828601611922565b925050602061196d8582860161186d565b9150509250929050565b6000806000606084860312156119905761198f6116df565b5b600061199e86828701611922565b93505060206119af86828701611922565b92505060406119c08682870161186d565b9150509250925092565b6000602082840312156119e0576119df6116df565b5b60006119ee84828501611922565b91505092915050565b611a008161176e565b8114611a0b57600080fd5b50565b600081359050611a1d816119f7565b92915050565b60008060408385031215611a3a57611a396116df565b5b6000611a4885828601611922565b9250506020611a5985828601611a0e565b9150509250929050565b600080fd5b600080fd5b7f4e487b7100000000000000000000000000000000000000000000000000000000600052604160045260246000fd5b611aa5826117ea565b810181811067ffffffffffffffff82111715611ac457611ac3611a6d565b5b80604052505050565b6000611ad76116d5565b9050611ae38282611a9c565b919050565b600067ffffffffffffffff821115611b0357611b02611a6d565b5b611b0c826117ea565b9050602081019050919050565b82818337600083830152505050565b6000611b3b611b3684611ae8565b611acd565b905082815260208101848484011115611b5757611b56611a68565b5b611b62848285611b19565b509392505050565b600082601f830112611b7f57611b7e611a63565b5b8135611b8f848260208601611b28565b91505092915050565b60008060008060808587031215611bb257611bb16116df565b5b6000611bc087828801611922565b9450506020611bd187828801611922565b9350506040611be28782880161186d565b925050606085013567ffffffffffffffff811115611c0357611c026116e4565b5b611c0f87828801611b6a565b91505092959194509250565b60008060408385031215611c3257611c316116df565b5b6000611c4085828601611922565b9250506020611c5185828601611922565b9150509250929050565b7f4e487b7100000000000000000000000000000000000000000000000000000000600052602260045260246000fd5b60006002820490506001821680611ca257607f821691505b602082108103611cb557611cb4611c5b565b5b50919050565b7f4552433732313a20617070726f76616c20746f2063757272656e74206f776e6560008201527f7200000000000000000000000000000000000000000000000000000000000000602082015250565b6000611d176021836117af565b9150611d2282611cbb565b604082019050919050565b60006020820190508181036000830152611d4681611d0a565b9050919050565b7f4552433732313a20617070726f76652063616c6c6572206973206e6f7420746f60008201527f6b656e206f776e6572206f7220617070726f76656420666f7220616c6c000000602082015250565b6000611da9603d836117af565b9150611db482611d4d565b604082019050919050565b60006020820190508181036000830152611dd881611d9c565b9050919050565b7f4552433732313a2063616c6c6572206973206e6f7420746f6b656e206f776e6560008201527f72206f7220617070726f76656400000000000000000000000000000000000000602082015250565b6000611e3b602d836117af565b9150611e4682611ddf565b604082019050919050565b60006020820190508181036000830152611e6a81611e2e565b9050919050565b7f4552433732313a20696e76616c696420746f6b656e2049440000000000000000600082015250565b6000611ea76018836117af565b9150611eb282611e71565b602082019050919050565b60006020820190508181036000830152611ed681611e9a565b9050919050565b7f4552433732313a2061646472657373207a65726f206973206e6f74206120766160008201527f6c6964206f776e65720000000000000000000000000000000000000000000000602082015250565b6000611f396029836117af565b9150611f4482611edd565b604082019050919050565b60006020820190508181036000830152611f6881611f2c565b9050919050565b7f4e487b7100000000000000000000000000000000000000000000000000000000600052601160045260246000fd5b6000611fa9826116a1565b9150611fb4836116a1565b9250828201905080821115611fcc57611fcb611f6f565b5b92915050565b7f4552433732313a207472616e736665722066726f6d20696e636f72726563742060008201527f6f776e6572000000000000000000000000000000000000000000000000000000602082015250565b600061202e6025836117af565b915061203982611fd2565b604082019050919050565b6000602082019050818103600083015261205d81612021565b9050919050565b7f4552433732313a207472616e7366657220746f20746865207a65726f2061646460008201527f7265737300000000000000000000000000000000000000000000000000000000602082015250565b60006120c06024836117af565b91506120cb82612064565b604082019050919050565b600060208201905081810360008301526120ef816120b3565b9050919050565b7f4552433732313a20617070726f766520746f2063616c6c657200000000000000600082015250565b600061212c6019836117af565b9150612137826120f6565b602082019050919050565b6000602082019050818103600083015261215b8161211f565b9050919050565b7f4552433732313a207472616e7366657220746f206e6f6e20455243373231526560008201527f63656976657220696d706c656d656e7465720000000000000000000000000000602082015250565b60006121be6032836117af565b91506121c982612162565b604082019050919050565b600060208201905081810360008301526121ed816121b1565b9050919050565b60006121ff826116a1565b915061220a836116a1565b925082820390508181111561222257612221611f6f565b5b92915050565b600081519050919050565b600082825260208201905092915050565b600061224f82612228565b6122598185612233565b93506122698185602086016117c0565b612272816117ea565b840191505092915050565b600060808201905061229260008301876118e1565b61229f60208301866118e1565b6122ac60408301856116ab565b81810360608301526122be8184612244565b905095945050505050565b6000815190506122d881611715565b92915050565b6000602082840312156122f4576122f36116df565b5b6000612302848285016122c9565b91505092915050565b7f4552433732313a206d696e7420746f20746865207a65726f2061646472657373600082015250565b60006123416020836117af565b915061234c8261230b565b602082019050919050565b6000602082019050818103600083015261237081612334565b9050919050565b7f4552433732313a20746f6b656e20616c7265616479206d696e74656400000000600082015250565b60006123ad601c836117af565b91506123b882612377565b602082019050919050565b600060208201905081810360008301526123dc816123a0565b905091905056fe697066733a2f2f62616679626569673337696f6972373673376d67356f6f6265746e636f6a636d3363336878617379643472766964346a71687934676b61686567342f3f66696c656e616d653d302d5055472e6a736f6ea2646970667358221220b143e96fe708245d66175877c417ffb069f849d42acb85c65fc6d89c62c8320364736f6c63430008110033",
  "linkReferences": {},
  "deployedLinkReferences": {}
}