{
  "_format": "hh-sol-artifact-1",
  "contractName": "RandomIpfsNft",
  "sourceName": "contracts/RandomIpfsNft.sol",
  "abi": [
    {
      "inputs": [
        {
          "internalType": "address",
          "name": "vrfCoordinatorV2",
          "type": "address"
        },
        {
          "internalType": "uint64",
          "name": "subscriptionId",
          "type": "uint64"
        },
        {
          "internalType": "bytes32",
          "name": "gasLane",
          "type": "bytes32"
        },
        {
          "internalType": "uint32",
          "name": "callbackGasLimit",
          "type": "uint32"
        },
        {
          "internalType": "string[3]",
          "name": "dogTokenURI",
          "type": "string[3]"
        },
        {
          "internalType": "uint256",
          "name": "mintFee",
          "type": "uint256"
        }
      ],
      "stateMutability": "nonpayable",
      "type": "constructor"
    },
    {
      "inputs": [
        {
          "internalType": "address",
          "name": "have",
          "type": "address"
        },
        {
          "internalType": "address",
          "name": "want",
          "type": "address"
        }
      ],
      "name": "OnlyCoordinatorCanFulfill",
      "type": "error"
    },
    {
      "inputs": [],
      "name": "RandomIpfsNft__RangeOutOfBounds",
      "type": "error"
    },
    {
      "inputs": [],
      "name": "RandomIpfsNft__needMoreEthSent",
      "type": "error"
    },
    {
      "inputs": [],
      "name": "RandomIpfsNft__transferFailed",
      "type": "error"
    },
    {
      "anonymous": false,
      "inputs": [
        {
          "indexed": true,
          "internalType": "address",
          "name": "owner",
          "type": "address"
        },
        {
          "indexed": true,
          "internalType": "address",
          "name": "approved",
          "type": "address"
        },
        {
          "indexed": true,
          "internalType": "uint256",
          "name": "tokenId",
          "type": "uint256"
        }
      ],
      "name": "Approval",
      "type": "event"
    },
    {
      "anonymous": false,
      "inputs": [
        {
          "indexed": true,
          "internalType": "address",
          "name": "owner",
          "type": "address"
        },
        {
          "indexed": true,
          "internalType": "address",
          "name": "operator",
          "type": "address"
        },
        {
          "indexed": false,
          "internalType": "bool",
          "name": "approved",
          "type": "bool"
        }
      ],
      "name": "ApprovalForAll",
      "type": "event"
    },
    {
      "anonymous": false,
      "inputs": [
        {
          "indexed": false,
          "internalType": "enum RandomIpfsNft.Breed",
          "name": "dogBreed",
          "type": "uint8"
        },
        {
          "indexed": false,
          "internalType": "address",
          "name": "minter",
          "type": "address"
        }
      ],
      "name": "NftMinted",
      "type": "event"
    },
    {
      "anonymous": false,
      "inputs": [
        {
          "indexed": true,
          "internalType": "uint256",
          "name": "requestId",
          "type": "uint256"
        },
        {
          "indexed": false,
          "internalType": "address",
          "name": "requester",
          "type": "address"
        }
      ],
      "name": "NftRequested",
      "type": "event"
    },
    {
      "anonymous": false,
      "inputs": [
        {
          "indexed": true,
          "internalType": "address",
          "name": "previousOwner",
          "type": "address"
        },
        {
          "indexed": true,
          "internalType": "address",
          "name": "newOwner",
          "type": "address"
        }
      ],
      "name": "OwnershipTransferred",
      "type": "event"
    },
    {
      "anonymous": false,
      "inputs": [
        {
          "indexed": true,
          "internalType": "address",
          "name": "from",
          "type": "address"
        },
        {
          "indexed": true,
          "internalType": "address",
          "name": "to",
          "type": "address"
        },
        {
          "indexed": true,
          "internalType": "uint256",
          "name": "tokenId",
          "type": "uint256"
        }
      ],
      "name": "Transfer",
      "type": "event"
    },
    {
      "inputs": [],
      "name": "MAX_CHANCE_VALUE",
      "outputs": [
        {
          "internalType": "uint256",
          "name": "",
          "type": "uint256"
        }
      ],
      "stateMutability": "view",
      "type": "function"
    },
    {
      "inputs": [
        {
          "internalType": "address",
          "name": "to",
          "type": "address"
        },
        {
          "internalType": "uint256",
          "name": "tokenId",
          "type": "uint256"
        }
      ],
      "name": "approve",
      "outputs": [],
      "stateMutability": "nonpayable",
      "type": "function"
    },
    {
      "inputs": [
        {
          "internalType": "address",
          "name": "owner",
          "type": "address"
        }
      ],
      "name": "balanceOf",
      "outputs": [
        {
          "internalType": "uint256",
          "name": "",
          "type": "uint256"
        }
      ],
      "stateMutability": "view",
      "type": "function"
    },
    {
      "inputs": [
        {
          "internalType": "uint256",
          "name": "tokenId",
          "type": "uint256"
        }
      ],
      "name": "getApproved",
      "outputs": [
        {
          "internalType": "address",
          "name": "",
          "type": "address"
        }
      ],
      "stateMutability": "view",
      "type": "function"
    },
    {
      "inputs": [
        {
          "internalType": "uint256",
          "name": "moddedRng",
          "type": "uint256"
        }
      ],
      "name": "getBreedFromModdedRng",
      "outputs": [
        {
          "internalType": "enum RandomIpfsNft.Breed",
          "name": "",
          "type": "uint8"
        }
      ],
      "stateMutability": "pure",
      "type": "function"
    },
    {
      "inputs": [],
      "name": "getChanceArray",
      "outputs": [
        {
          "internalType": "uint256[3]",
          "name": "",
          "type": "uint256[3]"
        }
      ],
      "stateMutability": "pure",
      "type": "function"
    },
    {
      "inputs": [
        {
          "internalType": "uint256",
          "name": "index",
          "type": "uint256"
        }
      ],
      "name": "getDogTokenUri",
      "outputs": [
        {
          "internalType": "string",
          "name": "",
          "type": "string"
        }
      ],
      "stateMutability": "view",
      "type": "function"
    },
    {
      "inputs": [],
      "name": "getMintFee",
      "outputs": [
        {
          "internalType": "uint256",
          "name": "",
          "type": "uint256"
        }
      ],
      "stateMutability": "view",
      "type": "function"
    },
    {
      "inputs": [],
      "name": "getTokenCounter",
      "outputs": [
        {
          "internalType": "uint256",
          "name": "",
          "type": "uint256"
        }
      ],
      "stateMutability": "view",
      "type": "function"
    },
    {
      "inputs": [
        {
          "internalType": "address",
          "name": "owner",
          "type": "address"
        },
        {
          "internalType": "address",
          "name": "operator",
          "type": "address"
        }
      ],
      "name": "isApprovedForAll",
      "outputs": [
        {
          "internalType": "bool",
          "name": "",
          "type": "bool"
        }
      ],
      "stateMutability": "view",
      "type": "function"
    },
    {
      "inputs": [],
      "name": "name",
      "outputs": [
        {
          "internalType": "string",
          "name": "",
          "type": "string"
        }
      ],
      "stateMutability": "view",
      "type": "function"
    },
    {
      "inputs": [],
      "name": "owner",
      "outputs": [
        {
          "internalType": "address",
          "name": "",
          "type": "address"
        }
      ],
      "stateMutability": "view",
      "type": "function"
    },
    {
      "inputs": [
        {
          "internalType": "uint256",
          "name": "tokenId",
          "type": "uint256"
        }
      ],
      "name": "ownerOf",
      "outputs": [
        {
          "internalType": "address",
          "name": "",
          "type": "address"
        }
      ],
      "stateMutability": "view",
      "type": "function"
    },
    {
      "inputs": [
        {
          "internalType": "uint256",
          "name": "requestId",
          "type": "uint256"
        },
        {
          "internalType": "uint256[]",
          "name": "randomWords",
          "type": "uint256[]"
        }
      ],
      "name": "rawFulfillRandomWords",
      "outputs": [],
      "stateMutability": "nonpayable",
      "type": "function"
    },
    {
      "inputs": [],
      "name": "renounceOwnership",
      "outputs": [],
      "stateMutability": "nonpayable",
      "type": "function"
    },
    {
      "inputs": [],
      "name": "requestNft",
      "outputs": [
        {
          "internalType": "uint256",
          "name": "requestId",
          "type": "uint256"
        }
      ],
      "stateMutability": "payable",
      "type": "function"
    },
    {
      "inputs": [
        {
          "internalType": "uint256",
          "name": "",
          "type": "uint256"
        }
      ],
      "name": "s_requestIdToSender",
      "outputs": [
        {
          "internalType": "address",
          "name": "",
          "type": "address"
        }
      ],
      "stateMutability": "view",
      "type": "function"
    },
    {
      "inputs": [],
      "name": "s_tokenCounter",
      "outputs": [
        {
          "internalType": "uint256",
          "name": "",
          "type": "uint256"
        }
      ],
      "stateMutability": "view",
      "type": "function"
    },
    {
      "inputs": [
        {
          "internalType": "address",
          "name": "from",
          "type": "address"
        },
        {
          "internalType": "address",
          "name": "to",
          "type": "address"
        },
        {
          "internalType": "uint256",
          "name": "tokenId",
          "type": "uint256"
        }
      ],
      "name": "safeTransferFrom",
      "outputs": [],
      "stateMutability": "nonpayable",
      "type": "function"
    },
    {
      "inputs": [
        {
          "internalType": "address",
          "name": "from",
          "type": "address"
        },
        {
          "internalType": "address",
          "name": "to",
          "type": "address"
        },
        {
          "internalType": "uint256",
          "name": "tokenId",
          "type": "uint256"
        },
        {
          "internalType": "bytes",
          "name": "data",
          "type": "bytes"
        }
      ],
      "name": "safeTransferFrom",
      "outputs": [],
      "stateMutability": "nonpayable",
      "type": "function"
    },
    {
      "inputs": [
        {
          "internalType": "address",
          "name": "operator",
          "type": "address"
        },
        {
          "internalType": "bool",
          "name": "approved",
          "type": "bool"
        }
      ],
      "name": "setApprovalForAll",
      "outputs": [],
      "stateMutability": "nonpayable",
      "type": "function"
    },
    {
      "inputs": [
        {
          "internalType": "bytes4",
          "name": "interfaceId",
          "type": "bytes4"
        }
      ],
      "name": "supportsInterface",
      "outputs": [
        {
          "internalType": "bool",
          "name": "",
          "type": "bool"
        }
      ],
      "stateMutability": "view",
      "type": "function"
    },
    {
      "inputs": [],
      "name": "symbol",
      "outputs": [
        {
          "internalType": "string",
          "name": "",
          "type": "string"
        }
      ],
      "stateMutability": "view",
      "type": "function"
    },
    {
      "inputs": [
        {
          "internalType": "uint256",
          "name": "tokenId",
          "type": "uint256"
        }
      ],
      "name": "tokenURI",
      "outputs": [
        {
          "internalType": "string",
          "name": "",
          "type": "string"
        }
      ],
      "stateMutability": "view",
      "type": "function"
    },
    {
      "inputs": [
        {
          "internalType": "address",
          "name": "from",
          "type": "address"
        },
        {
          "internalType": "address",
          "name": "to",
          "type": "address"
        },
        {
          "internalType": "uint256",
          "name": "tokenId",
          "type": "uint256"
        }
      ],
      "name": "transferFrom",
      "outputs": [],
      "stateMutability": "nonpayable",
      "type": "function"
    },
    {
      "inputs": [
        {
          "internalType": "address",
          "name": "newOwner",
          "type": "address"
        }
      ],
      "name": "transferOwnership",
      "outputs": [],
      "stateMutability": "nonpayable",
      "type": "function"
    },
    {
      "inputs": [],
      "name": "withdraw",
      "outputs": [],
      "stateMutability": "nonpayable",
      "type": "function"
    }
  ],
  "bytecode": "0x6101406040523480156200001257600080fd5b50604051620049283803806200492883398181016040528101906200003891906200074f565b6040518060400160405280600f81526020017f52616e646f6d2049504653204e465400000000000000000000000000000000008152506040518060400160405280600381526020017f52494e0000000000000000000000000000000000000000000000000000000000815250878073ffffffffffffffffffffffffffffffffffffffff1660808173ffffffffffffffffffffffffffffffffffffffff1681525050508160009081620000eb919062000a4b565b508060019081620000fd919062000a4b565b5050506200012062000114620001b660201b60201c565b620001be60201b60201c565b8573ffffffffffffffffffffffffffffffffffffffff1660a08173ffffffffffffffffffffffffffffffffffffffff16815250508467ffffffffffffffff1660c08167ffffffffffffffff16815250508360e081815250508263ffffffff166101008163ffffffff168152505081600a906003620001a092919062000284565b5080610120818152505050505050505062000b32565b600033905090565b6000600760009054906101000a900473ffffffffffffffffffffffffffffffffffffffff16905081600760006101000a81548173ffffffffffffffffffffffffffffffffffffffff021916908373ffffffffffffffffffffffffffffffffffffffff1602179055508173ffffffffffffffffffffffffffffffffffffffff168173ffffffffffffffffffffffffffffffffffffffff167f8be0079c531659141344cd1fd0a4f28419497f9722a3daafe3b4186f6b6457e060405160405180910390a35050565b828054828255906000526020600020908101928215620002d1579160200282015b82811115620002d0578251829081620002bf919062000a4b565b5091602001919060010190620002a5565b5b509050620002e09190620002e4565b5090565b5b80821115620003085760008181620002fe91906200030c565b50600101620002e5565b5090565b5080546200031a9062000844565b6000825580601f106200032e57506200034f565b601f0160209004906000526020600020908101906200034e919062000352565b5b50565b5b808211156200036d57600081600090555060010162000353565b5090565b6000604051905090565b600080fd5b600080fd5b600073ffffffffffffffffffffffffffffffffffffffff82169050919050565b6000620003b28262000385565b9050919050565b620003c481620003a5565b8114620003d057600080fd5b50565b600081519050620003e481620003b9565b92915050565b600067ffffffffffffffff82169050919050565b6200040981620003ea565b81146200041557600080fd5b50565b6000815190506200042981620003fe565b92915050565b6000819050919050565b62000444816200042f565b81146200045057600080fd5b50565b600081519050620004648162000439565b92915050565b600063ffffffff82169050919050565b62000485816200046a565b81146200049157600080fd5b50565b600081519050620004a5816200047a565b92915050565b600080fd5b6000601f19601f8301169050919050565b7f4e487b7100000000000000000000000000000000000000000000000000000000600052604160045260246000fd5b620004fb82620004b0565b810181811067ffffffffffffffff821117156200051d576200051c620004c1565b5b80604052505050565b60006200053262000371565b9050620005408282620004f0565b919050565b600067ffffffffffffffff821115620005635762000562620004c1565b5b602082029050919050565b600080fd5b600080fd5b600067ffffffffffffffff821115620005965762000595620004c1565b5b620005a182620004b0565b9050602081019050919050565b60005b83811015620005ce578082015181840152602081019050620005b1565b60008484015250505050565b6000620005f1620005eb8462000578565b62000526565b90508281526020810184848401111562000610576200060f62000573565b5b6200061d848285620005ae565b509392505050565b600082601f8301126200063d576200063c620004ab565b5b81516200064f848260208601620005da565b91505092915050565b60006200066f620006698462000545565b62000526565b905080602084028301858111156200068c576200068b6200056e565b5b835b81811015620006da57805167ffffffffffffffff811115620006b557620006b4620004ab565b5b808601620006c4898262000625565b855260208501945050506020810190506200068e565b5050509392505050565b600082601f830112620006fc57620006fb620004ab565b5b60036200070b84828562000658565b91505092915050565b6000819050919050565b620007298162000714565b81146200073557600080fd5b50565b60008151905062000749816200071e565b92915050565b60008060008060008060c087890312156200076f576200076e6200037b565b5b60006200077f89828a01620003d3565b96505060206200079289828a0162000418565b9550506040620007a589828a0162000453565b9450506060620007b889828a0162000494565b935050608087015167ffffffffffffffff811115620007dc57620007db62000380565b5b620007ea89828a01620006e4565b92505060a0620007fd89828a0162000738565b9150509295509295509295565b600081519050919050565b7f4e487b7100000000000000000000000000000000000000000000000000000000600052602260045260246000fd5b600060028204905060018216806200085d57607f821691505b60208210810362000873576200087262000815565b5b50919050565b60008190508160005260206000209050919050565b60006020601f8301049050919050565b600082821b905092915050565b600060088302620008dd7fffffffffffffffffffffffffffffffffffffffffffffffffffffffffffffffff826200089e565b620008e986836200089e565b95508019841693508086168417925050509392505050565b6000819050919050565b60006200092c62000926620009208462000714565b62000901565b62000714565b9050919050565b6000819050919050565b62000948836200090b565b62000960620009578262000933565b848454620008ab565b825550505050565b600090565b6200097762000968565b620009848184846200093d565b505050565b5b81811015620009ac57620009a06000826200096d565b6001810190506200098a565b5050565b601f821115620009fb57620009c58162000879565b620009d0846200088e565b81016020851015620009e0578190505b620009f8620009ef856200088e565b83018262000989565b50505b505050565b600082821c905092915050565b600062000a206000198460080262000a00565b1980831691505092915050565b600062000a3b838362000a0d565b9150826002028217905092915050565b62000a56826200080a565b67ffffffffffffffff81111562000a725762000a71620004c1565b5b62000a7e825462000844565b62000a8b828285620009b0565b600060209050601f83116001811462000ac3576000841562000aae578287015190505b62000aba858262000a2d565b86555062000b2a565b601f19841662000ad38662000879565b60005b8281101562000afd5784890151825560018201915060208501945060208101905062000ad6565b8683101562000b1d578489015162000b19601f89168262000a0d565b8355505b6001600288020188555050505b505050505050565b60805160a05160c05160e0516101005161012051613d9862000b9060003960008181610d8e0152610f7a01526000611054015260006110100152600061103101526000610fd401526000818161096201526109b60152613d986000f3fe60806040526004361061019c5760003560e01c8063715018a6116100ec578063a51cccf31161008a578063c87b56dd11610064578063c87b56dd146105bb578063da1b9e29146105f8578063e985e9c514610623578063f2fde38b146106605761019c565b8063a51cccf314610537578063aa15249114610574578063b88d4fde146105925761019c565b80638da5cb5b116100c65780638da5cb5b1461047b57806395d89b41146104a6578063a22cb465146104d1578063a36f573b146104fa5761019c565b8063715018a6146103fc578063741a63fa146104135780637a5caab3146104505761019c565b806323b872dd116101595780635dacf5f4116101335780635dacf5f41461032c5780636352211e146103575780636e02007d1461039457806370a08231146103bf5761019c565b806323b872dd146102c35780633ccfd60b146102ec57806342842e0e146103035761019c565b806301ffc9a7146101a157806306fdde03146101de578063081812fc14610209578063095ea7b3146102465780630b21a83b1461026f5780631fe543e31461029a575b600080fd5b3480156101ad57600080fd5b506101c860048036038101906101c39190612726565b610689565b6040516101d5919061276e565b60405180910390f35b3480156101ea57600080fd5b506101f361076b565b6040516102009190612819565b60405180910390f35b34801561021557600080fd5b50610230600480360381019061022b9190612871565b6107fd565b60405161023d91906128df565b60405180910390f35b34801561025257600080fd5b5061026d60048036038101906102689190612926565b610843565b005b34801561027b57600080fd5b5061028461095a565b6040516102919190612975565b60405180910390f35b3480156102a657600080fd5b506102c160048036038101906102bc9190612ad8565b610960565b005b3480156102cf57600080fd5b506102ea60048036038101906102e59190612b34565b610a20565b005b3480156102f857600080fd5b50610301610a80565b005b34801561030f57600080fd5b5061032a60048036038101906103259190612b34565b610b34565b005b34801561033857600080fd5b50610341610b54565b60405161034e9190612c32565b60405180910390f35b34801561036357600080fd5b5061037e60048036038101906103799190612871565b610b7f565b60405161038b91906128df565b60405180910390f35b3480156103a057600080fd5b506103a9610c05565b6040516103b69190612975565b60405180910390f35b3480156103cb57600080fd5b506103e660048036038101906103e19190612c4d565b610c0f565b6040516103f39190612975565b60405180910390f35b34801561040857600080fd5b50610411610cc6565b005b34801561041f57600080fd5b5061043a60048036038101906104359190612871565b610cda565b6040516104479190612819565b60405180910390f35b34801561045c57600080fd5b50610465610d8a565b6040516104729190612975565b60405180910390f35b34801561048757600080fd5b50610490610db2565b60405161049d91906128df565b60405180910390f35b3480156104b257600080fd5b506104bb610ddc565b6040516104c89190612819565b60405180910390f35b3480156104dd57600080fd5b506104f860048036038101906104f39190612ca6565b610e6e565b005b34801561050657600080fd5b50610521600480360381019061051c9190612871565b610e84565b60405161052e91906128df565b60405180910390f35b34801561054357600080fd5b5061055e60048036038101906105599190612871565b610eb7565b60405161056b9190612d5d565b60405180910390f35b61057c610f76565b6040516105899190612975565b60405180910390f35b34801561059e57600080fd5b506105b960048036038101906105b49190612e2d565b611167565b005b3480156105c757600080fd5b506105e260048036038101906105dd9190612871565b6111c9565b6040516105ef9190612819565b60405180910390f35b34801561060457600080fd5b5061060d6112db565b60405161061a9190612975565b60405180910390f35b34801561062f57600080fd5b5061064a60048036038101906106459190612eb0565b6112e0565b604051610657919061276e565b60405180910390f35b34801561066c57600080fd5b5061068760048036038101906106829190612c4d565b611374565b005b60007f80ac58cd000000000000000000000000000000000000000000000000000000007bffffffffffffffffffffffffffffffffffffffffffffffffffffffff1916827bffffffffffffffffffffffffffffffffffffffffffffffffffffffff1916148061075457507f5b5e139f000000000000000000000000000000000000000000000000000000007bffffffffffffffffffffffffffffffffffffffffffffffffffffffff1916827bffffffffffffffffffffffffffffffffffffffffffffffffffffffff1916145b806107645750610763826113f7565b5b9050919050565b60606000805461077a90612f1f565b80601f01602080910402602001604051908101604052809291908181526020018280546107a690612f1f565b80156107f35780601f106107c8576101008083540402835291602001916107f3565b820191906000526020600020905b8154815290600101906020018083116107d657829003601f168201915b5050505050905090565b600061080882611461565b6004600083815260200190815260200160002060009054906101000a900473ffffffffffffffffffffffffffffffffffffffff169050919050565b600061084e82610b7f565b90508073ffffffffffffffffffffffffffffffffffffffff168373ffffffffffffffffffffffffffffffffffffffff16036108be576040517f08c379a00000000000000000000000000000000000000000000000000000000081526004016108b590612fc2565b60405180910390fd5b8073ffffffffffffffffffffffffffffffffffffffff166108dd6114ac565b73ffffffffffffffffffffffffffffffffffffffff16148061090c575061090b816109066114ac565b6112e0565b5b61094b576040517f08c379a000000000000000000000000000000000000000000000000000000000815260040161094290613054565b60405180910390fd5b61095583836114b4565b505050565b60095481565b7f000000000000000000000000000000000000000000000000000000000000000073ffffffffffffffffffffffffffffffffffffffff163373ffffffffffffffffffffffffffffffffffffffff1614610a1257337f00000000000000000000000000000000000000000000000000000000000000006040517f1cf993f4000000000000000000000000000000000000000000000000000000008152600401610a09929190613074565b60405180910390fd5b610a1c828261156d565b5050565b610a31610a2b6114ac565b82611707565b610a70576040517f08c379a0000000000000000000000000000000000000000000000000000000008152600401610a679061310f565b60405180910390fd5b610a7b83838361179c565b505050565b610a88611a95565b600047905060003373ffffffffffffffffffffffffffffffffffffffff1682604051610ab390613160565b60006040518083038185875af1925050503d8060008114610af0576040519150601f19603f3d011682016040523d82523d6000602084013e610af5565b606091505b5050905080610b30576040517f2193014600000000000000000000000000000000000000000000000000000000815260040160405180910390fd5b5050565b610b4f83838360405180602001604052806000815250611167565b505050565b610b5c612698565b6040518060600160405280600a8152602001601481526020016064815250905090565b600080610b8b83611b13565b9050600073ffffffffffffffffffffffffffffffffffffffff168173ffffffffffffffffffffffffffffffffffffffff1603610bfc576040517f08c379a0000000000000000000000000000000000000000000000000000000008152600401610bf3906131c1565b60405180910390fd5b80915050919050565b6000600954905090565b60008073ffffffffffffffffffffffffffffffffffffffff168273ffffffffffffffffffffffffffffffffffffffff1603610c7f576040517f08c379a0000000000000000000000000000000000000000000000000000000008152600401610c7690613253565b60405180910390fd5b600360008373ffffffffffffffffffffffffffffffffffffffff1673ffffffffffffffffffffffffffffffffffffffff168152602001908152602001600020549050919050565b610cce611a95565b610cd86000611b50565b565b6060600a8281548110610cf057610cef613273565b5b906000526020600020018054610d0590612f1f565b80601f0160208091040260200160405190810160405280929190818152602001828054610d3190612f1f565b8015610d7e5780601f10610d5357610100808354040283529160200191610d7e565b820191906000526020600020905b815481529060010190602001808311610d6157829003601f168201915b50505050509050919050565b60007f0000000000000000000000000000000000000000000000000000000000000000905090565b6000600760009054906101000a900473ffffffffffffffffffffffffffffffffffffffff16905090565b606060018054610deb90612f1f565b80601f0160208091040260200160405190810160405280929190818152602001828054610e1790612f1f565b8015610e645780601f10610e3957610100808354040283529160200191610e64565b820191906000526020600020905b815481529060010190602001808311610e4757829003601f168201915b5050505050905090565b610e80610e796114ac565b8383611c16565b5050565b60086020528060005260406000206000915054906101000a900473ffffffffffffffffffffffffffffffffffffffff1681565b600080600090506000610ec8610b54565b905060005b6003811015610f4357828510158015610efc5750818160038110610ef457610ef3613273565b5b602002015185105b15610f1657806002811115610f1457610f13612ce6565b5b505b818160038110610f2957610f28613273565b5b602002015192508080610f3b906132d1565b915050610ecd565b506040517f12806c9d00000000000000000000000000000000000000000000000000000000815260040160405180910390fd5b60007f0000000000000000000000000000000000000000000000000000000000000000341015610fd2576040517f0da22b0900000000000000000000000000000000000000000000000000000000815260040160405180910390fd5b7f000000000000000000000000000000000000000000000000000000000000000073ffffffffffffffffffffffffffffffffffffffff16635d3b1d307f00000000000000000000000000000000000000000000000000000000000000007f000000000000000000000000000000000000000000000000000000000000000060037f000000000000000000000000000000000000000000000000000000000000000060016040518663ffffffff1660e01b8152600401611095959493929190613391565b6020604051808303816000875af11580156110b4573d6000803e3d6000fd5b505050506040513d601f19601f820116820180604052508101906110d891906133f9565b9050336008600083815260200190815260200160002060006101000a81548173ffffffffffffffffffffffffffffffffffffffff021916908373ffffffffffffffffffffffffffffffffffffffff160217905550807ff873236e6cc0ecc5be1a9a35c95ee5b8d1ac4cc7bfef0cc5060391d6cc98e26b3360405161115c91906128df565b60405180910390a290565b6111786111726114ac565b83611707565b6111b7576040517f08c379a00000000000000000000000000000000000000000000000000000000081526004016111ae9061310f565b60405180910390fd5b6111c384848484611d82565b50505050565b60606111d482611461565b60006006600084815260200190815260200160002080546111f490612f1f565b80601f016020809104026020016040519081016040528092919081815260200182805461122090612f1f565b801561126d5780601f106112425761010080835404028352916020019161126d565b820191906000526020600020905b81548152906001019060200180831161125057829003601f168201915b50505050509050600061127e611dde565b905060008151036112935781925050506112d6565b6000825111156112c85780826040516020016112b0929190613462565b604051602081830303815290604052925050506112d6565b6112d184611df5565b925050505b919050565b606481565b6000600560008473ffffffffffffffffffffffffffffffffffffffff1673ffffffffffffffffffffffffffffffffffffffff16815260200190815260200160002060008373ffffffffffffffffffffffffffffffffffffffff1673ffffffffffffffffffffffffffffffffffffffff16815260200190815260200160002060009054906101000a900460ff16905092915050565b61137c611a95565b600073ffffffffffffffffffffffffffffffffffffffff168173ffffffffffffffffffffffffffffffffffffffff16036113eb576040517f08c379a00000000000000000000000000000000000000000000000000000000081526004016113e2906134f8565b60405180910390fd5b6113f481611b50565b50565b60007f01ffc9a7000000000000000000000000000000000000000000000000000000007bffffffffffffffffffffffffffffffffffffffffffffffffffffffff1916827bffffffffffffffffffffffffffffffffffffffffffffffffffffffff1916149050919050565b61146a81611e5d565b6114a9576040517f08c379a00000000000000000000000000000000000000000000000000000000081526004016114a0906131c1565b60405180910390fd5b50565b600033905090565b816004600083815260200190815260200160002060006101000a81548173ffffffffffffffffffffffffffffffffffffffff021916908373ffffffffffffffffffffffffffffffffffffffff160217905550808273ffffffffffffffffffffffffffffffffffffffff1661152783610b7f565b73ffffffffffffffffffffffffffffffffffffffff167f8c5be1e5ebec7d5bd14f71427d1e84f3dd0314c0f7b2291e5b200ac8c7c3b92560405160405180910390a45050565b60006008600084815260200190815260200160002060009054906101000a900473ffffffffffffffffffffffffffffffffffffffff1690506000600954905060006064846000815181106115c4576115c3613273565b5b60200260200101516115d69190613547565b905060006115e382610eb7565b905060016009546115f49190613578565b6009819055506116048484611e9e565b6116c683600a83600281111561161d5761161c612ce6565b5b8154811061162e5761162d613273565b5b90600052602060002001805461164390612f1f565b80601f016020809104026020016040519081016040528092919081815260200182805461166f90612f1f565b80156116bc5780601f10611691576101008083540402835291602001916116bc565b820191906000526020600020905b81548152906001019060200180831161169f57829003601f168201915b5050505050611ebc565b7f8a269f26b688e110e9cbd887d163dab35cae678fa353a0292de532c0cac1ecdc81856040516116f79291906135ac565b60405180910390a1505050505050565b60008061171383610b7f565b90508073ffffffffffffffffffffffffffffffffffffffff168473ffffffffffffffffffffffffffffffffffffffff161480611755575061175481856112e0565b5b8061179357508373ffffffffffffffffffffffffffffffffffffffff1661177b846107fd565b73ffffffffffffffffffffffffffffffffffffffff16145b91505092915050565b8273ffffffffffffffffffffffffffffffffffffffff166117bc82610b7f565b73ffffffffffffffffffffffffffffffffffffffff1614611812576040517f08c379a000000000000000000000000000000000000000000000000000000000815260040161180990613647565b60405180910390fd5b600073ffffffffffffffffffffffffffffffffffffffff168273ffffffffffffffffffffffffffffffffffffffff1603611881576040517f08c379a0000000000000000000000000000000000000000000000000000000008152600401611878906136d9565b60405180910390fd5b61188e8383836001611f29565b8273ffffffffffffffffffffffffffffffffffffffff166118ae82610b7f565b73ffffffffffffffffffffffffffffffffffffffff1614611904576040517f08c379a00000000000000000000000000000000000000000000000000000000081526004016118fb90613647565b60405180910390fd5b6004600082815260200190815260200160002060006101000a81549073ffffffffffffffffffffffffffffffffffffffff02191690556001600360008573ffffffffffffffffffffffffffffffffffffffff1673ffffffffffffffffffffffffffffffffffffffff168152602001908152602001600020600082825403925050819055506001600360008473ffffffffffffffffffffffffffffffffffffffff1673ffffffffffffffffffffffffffffffffffffffff16815260200190815260200160002060008282540192505081905550816002600083815260200190815260200160002060006101000a81548173ffffffffffffffffffffffffffffffffffffffff021916908373ffffffffffffffffffffffffffffffffffffffff160217905550808273ffffffffffffffffffffffffffffffffffffffff168473ffffffffffffffffffffffffffffffffffffffff167fddf252ad1be2c89b69c2b068fc378daa952ba7f163c4a11628f55a4df523b3ef60405160405180910390a4611a90838383600161204f565b505050565b611a9d6114ac565b73ffffffffffffffffffffffffffffffffffffffff16611abb610db2565b73ffffffffffffffffffffffffffffffffffffffff1614611b11576040517f08c379a0000000000000000000000000000000000000000000000000000000008152600401611b0890613745565b60405180910390fd5b565b60006002600083815260200190815260200160002060009054906101000a900473ffffffffffffffffffffffffffffffffffffffff169050919050565b6000600760009054906101000a900473ffffffffffffffffffffffffffffffffffffffff16905081600760006101000a81548173ffffffffffffffffffffffffffffffffffffffff021916908373ffffffffffffffffffffffffffffffffffffffff1602179055508173ffffffffffffffffffffffffffffffffffffffff168173ffffffffffffffffffffffffffffffffffffffff167f8be0079c531659141344cd1fd0a4f28419497f9722a3daafe3b4186f6b6457e060405160405180910390a35050565b8173ffffffffffffffffffffffffffffffffffffffff168373ffffffffffffffffffffffffffffffffffffffff1603611c84576040517f08c379a0000000000000000000000000000000000000000000000000000000008152600401611c7b906137b1565b60405180910390fd5b80600560008573ffffffffffffffffffffffffffffffffffffffff1673ffffffffffffffffffffffffffffffffffffffff16815260200190815260200160002060008473ffffffffffffffffffffffffffffffffffffffff1673ffffffffffffffffffffffffffffffffffffffff16815260200190815260200160002060006101000a81548160ff0219169083151502179055508173ffffffffffffffffffffffffffffffffffffffff168373ffffffffffffffffffffffffffffffffffffffff167f17307eab39ab6107e8899845ad3d59bd9653f200f220920489ca2b5937696c3183604051611d75919061276e565b60405180910390a3505050565b611d8d84848461179c565b611d9984848484612055565b611dd8576040517f08c379a0000000000000000000000000000000000000000000000000000000008152600401611dcf90613843565b60405180910390fd5b50505050565b606060405180602001604052806000815250905090565b6060611e0082611461565b6000611e0a611dde565b90506000815111611e2a5760405180602001604052806000815250611e55565b80611e34846121dc565b604051602001611e45929190613462565b6040516020818303038152906040525b915050919050565b60008073ffffffffffffffffffffffffffffffffffffffff16611e7f83611b13565b73ffffffffffffffffffffffffffffffffffffffff1614159050919050565b611eb88282604051806020016040528060008152506122aa565b5050565b611ec582611e5d565b611f04576040517f08c379a0000000000000000000000000000000000000000000000000000000008152600401611efb906138d5565b60405180910390fd5b80600660008481526020019081526020016000209081611f249190613aa1565b505050565b600181111561204957600073ffffffffffffffffffffffffffffffffffffffff168473ffffffffffffffffffffffffffffffffffffffff1614611fbd5780600360008673ffffffffffffffffffffffffffffffffffffffff1673ffffffffffffffffffffffffffffffffffffffff1681526020019081526020016000206000828254611fb59190613b73565b925050819055505b600073ffffffffffffffffffffffffffffffffffffffff168373ffffffffffffffffffffffffffffffffffffffff16146120485780600360008573ffffffffffffffffffffffffffffffffffffffff1673ffffffffffffffffffffffffffffffffffffffff16815260200190815260200160002060008282546120409190613578565b925050819055505b5b50505050565b50505050565b60006120768473ffffffffffffffffffffffffffffffffffffffff16612305565b156121cf578373ffffffffffffffffffffffffffffffffffffffff1663150b7a0261209f6114ac565b8786866040518563ffffffff1660e01b81526004016120c19493929190613bfc565b6020604051808303816000875af19250505080156120fd57506040513d601f19601f820116820180604052508101906120fa9190613c5d565b60015b61217f573d806000811461212d576040519150601f19603f3d011682016040523d82523d6000602084013e612132565b606091505b506000815103612177576040517f08c379a000000000000000000000000000000000000000000000000000000000815260040161216e90613843565b60405180910390fd5b805181602001fd5b63150b7a0260e01b7bffffffffffffffffffffffffffffffffffffffffffffffffffffffff1916817bffffffffffffffffffffffffffffffffffffffffffffffffffffffff1916149150506121d4565b600190505b949350505050565b6060600060016121eb84612328565b01905060008167ffffffffffffffff81111561220a57612209612995565b5b6040519080825280601f01601f19166020018201604052801561223c5781602001600182028036833780820191505090505b509050600082602001820190505b60011561229f578080600190039150507f3031323334353637383961626364656600000000000000000000000000000000600a86061a8153600a858161229357612292613518565b5b0494506000850361224a575b819350505050919050565b6122b4838361247b565b6122c16000848484612055565b612300576040517f08c379a00000000000000000000000000000000000000000000000000000000081526004016122f790613843565b60405180910390fd5b505050565b6000808273ffffffffffffffffffffffffffffffffffffffff163b119050919050565b600080600090507a184f03e93ff9f4daa797ed6e38ed64bf6a1f0100000000000000008310612386577a184f03e93ff9f4daa797ed6e38ed64bf6a1f010000000000000000838161237c5761237b613518565b5b0492506040810190505b6d04ee2d6d415b85acef810000000083106123c3576d04ee2d6d415b85acef810000000083816123b9576123b8613518565b5b0492506020810190505b662386f26fc1000083106123f257662386f26fc1000083816123e8576123e7613518565b5b0492506010810190505b6305f5e100831061241b576305f5e100838161241157612410613518565b5b0492506008810190505b612710831061244057612710838161243657612435613518565b5b0492506004810190505b60648310612463576064838161245957612458613518565b5b0492506002810190505b600a8310612472576001810190505b80915050919050565b600073ffffffffffffffffffffffffffffffffffffffff168273ffffffffffffffffffffffffffffffffffffffff16036124ea576040517f08c379a00000000000000000000000000000000000000000000000000000000081526004016124e190613cd6565b60405180910390fd5b6124f381611e5d565b15612533576040517f08c379a000000000000000000000000000000000000000000000000000000000815260040161252a90613d42565b60405180910390fd5b612541600083836001611f29565b61254a81611e5d565b1561258a576040517f08c379a000000000000000000000000000000000000000000000000000000000815260040161258190613d42565b60405180910390fd5b6001600360008473ffffffffffffffffffffffffffffffffffffffff1673ffffffffffffffffffffffffffffffffffffffff16815260200190815260200160002060008282540192505081905550816002600083815260200190815260200160002060006101000a81548173ffffffffffffffffffffffffffffffffffffffff021916908373ffffffffffffffffffffffffffffffffffffffff160217905550808273ffffffffffffffffffffffffffffffffffffffff16600073ffffffffffffffffffffffffffffffffffffffff167fddf252ad1be2c89b69c2b068fc378daa952ba7f163c4a11628f55a4df523b3ef60405160405180910390a461269460008383600161204f565b5050565b6040518060600160405280600390602082028036833780820191505090505090565b6000604051905090565b600080fd5b600080fd5b60007fffffffff0000000000000000000000000000000000000000000000000000000082169050919050565b612703816126ce565b811461270e57600080fd5b50565b600081359050612720816126fa565b92915050565b60006020828403121561273c5761273b6126c4565b5b600061274a84828501612711565b91505092915050565b60008115159050919050565b61276881612753565b82525050565b6000602082019050612783600083018461275f565b92915050565b600081519050919050565b600082825260208201905092915050565b60005b838110156127c35780820151818401526020810190506127a8565b60008484015250505050565b6000601f19601f8301169050919050565b60006127eb82612789565b6127f58185612794565b93506128058185602086016127a5565b61280e816127cf565b840191505092915050565b6000602082019050818103600083015261283381846127e0565b905092915050565b6000819050919050565b61284e8161283b565b811461285957600080fd5b50565b60008135905061286b81612845565b92915050565b600060208284031215612887576128866126c4565b5b60006128958482850161285c565b91505092915050565b600073ffffffffffffffffffffffffffffffffffffffff82169050919050565b60006128c98261289e565b9050919050565b6128d9816128be565b82525050565b60006020820190506128f460008301846128d0565b92915050565b612903816128be565b811461290e57600080fd5b50565b600081359050612920816128fa565b92915050565b6000806040838503121561293d5761293c6126c4565b5b600061294b85828601612911565b925050602061295c8582860161285c565b9150509250929050565b61296f8161283b565b82525050565b600060208201905061298a6000830184612966565b92915050565b600080fd5b7f4e487b7100000000000000000000000000000000000000000000000000000000600052604160045260246000fd5b6129cd826127cf565b810181811067ffffffffffffffff821117156129ec576129eb612995565b5b80604052505050565b60006129ff6126ba565b9050612a0b82826129c4565b919050565b600067ffffffffffffffff821115612a2b57612a2a612995565b5b602082029050602081019050919050565b600080fd5b6000612a54612a4f84612a10565b6129f5565b90508083825260208201905060208402830185811115612a7757612a76612a3c565b5b835b81811015612aa05780612a8c888261285c565b845260208401935050602081019050612a79565b5050509392505050565b600082601f830112612abf57612abe612990565b5b8135612acf848260208601612a41565b91505092915050565b60008060408385031215612aef57612aee6126c4565b5b6000612afd8582860161285c565b925050602083013567ffffffffffffffff811115612b1e57612b1d6126c9565b5b612b2a85828601612aaa565b9150509250929050565b600080600060608486031215612b4d57612b4c6126c4565b5b6000612b5b86828701612911565b9350506020612b6c86828701612911565b9250506040612b7d8682870161285c565b9150509250925092565b600060039050919050565b600081905092915050565b6000819050919050565b612bb08161283b565b82525050565b6000612bc28383612ba7565b60208301905092915050565b6000602082019050919050565b612be481612b87565b612bee8184612b92565b9250612bf982612b9d565b8060005b83811015612c2a578151612c118782612bb6565b9650612c1c83612bce565b925050600181019050612bfd565b505050505050565b6000606082019050612c476000830184612bdb565b92915050565b600060208284031215612c6357612c626126c4565b5b6000612c7184828501612911565b91505092915050565b612c8381612753565b8114612c8e57600080fd5b50565b600081359050612ca081612c7a565b92915050565b60008060408385031215612cbd57612cbc6126c4565b5b6000612ccb85828601612911565b9250506020612cdc85828601612c91565b9150509250929050565b7f4e487b7100000000000000000000000000000000000000000000000000000000600052602160045260246000fd5b60038110612d2657612d25612ce6565b5b50565b6000819050612d3782612d15565b919050565b6000612d4782612d29565b9050919050565b612d5781612d3c565b82525050565b6000602082019050612d726000830184612d4e565b92915050565b600080fd5b600067ffffffffffffffff821115612d9857612d97612995565b5b612da1826127cf565b9050602081019050919050565b82818337600083830152505050565b6000612dd0612dcb84612d7d565b6129f5565b905082815260208101848484011115612dec57612deb612d78565b5b612df7848285612dae565b509392505050565b600082601f830112612e1457612e13612990565b5b8135612e24848260208601612dbd565b91505092915050565b60008060008060808587031215612e4757612e466126c4565b5b6000612e5587828801612911565b9450506020612e6687828801612911565b9350506040612e778782880161285c565b925050606085013567ffffffffffffffff811115612e9857612e976126c9565b5b612ea487828801612dff565b91505092959194509250565b60008060408385031215612ec757612ec66126c4565b5b6000612ed585828601612911565b9250506020612ee685828601612911565b9150509250929050565b7f4e487b7100000000000000000000000000000000000000000000000000000000600052602260045260246000fd5b60006002820490506001821680612f3757607f821691505b602082108103612f4a57612f49612ef0565b5b50919050565b7f4552433732313a20617070726f76616c20746f2063757272656e74206f776e6560008201527f7200000000000000000000000000000000000000000000000000000000000000602082015250565b6000612fac602183612794565b9150612fb782612f50565b604082019050919050565b60006020820190508181036000830152612fdb81612f9f565b9050919050565b7f4552433732313a20617070726f76652063616c6c6572206973206e6f7420746f60008201527f6b656e206f776e6572206f7220617070726f76656420666f7220616c6c000000602082015250565b600061303e603d83612794565b915061304982612fe2565b604082019050919050565b6000602082019050818103600083015261306d81613031565b9050919050565b600060408201905061308960008301856128d0565b61309660208301846128d0565b9392505050565b7f4552433732313a2063616c6c6572206973206e6f7420746f6b656e206f776e6560008201527f72206f7220617070726f76656400000000000000000000000000000000000000602082015250565b60006130f9602d83612794565b91506131048261309d565b604082019050919050565b60006020820190508181036000830152613128816130ec565b9050919050565b600081905092915050565b50565b600061314a60008361312f565b91506131558261313a565b600082019050919050565b600061316b8261313d565b9150819050919050565b7f4552433732313a20696e76616c696420746f6b656e2049440000000000000000600082015250565b60006131ab601883612794565b91506131b682613175565b602082019050919050565b600060208201905081810360008301526131da8161319e565b9050919050565b7f4552433732313a2061646472657373207a65726f206973206e6f74206120766160008201527f6c6964206f776e65720000000000000000000000000000000000000000000000602082015250565b600061323d602983612794565b9150613248826131e1565b604082019050919050565b6000602082019050818103600083015261326c81613230565b9050919050565b7f4e487b7100000000000000000000000000000000000000000000000000000000600052603260045260246000fd5b7f4e487b7100000000000000000000000000000000000000000000000000000000600052601160045260246000fd5b60006132dc8261283b565b91507fffffffffffffffffffffffffffffffffffffffffffffffffffffffffffffffff820361330e5761330d6132a2565b5b600182019050919050565b6000819050919050565b61332c81613319565b82525050565b600067ffffffffffffffff82169050919050565b61334f81613332565b82525050565b600061ffff82169050919050565b61336c81613355565b82525050565b600063ffffffff82169050919050565b61338b81613372565b82525050565b600060a0820190506133a66000830188613323565b6133b36020830187613346565b6133c06040830186613363565b6133cd6060830185613382565b6133da6080830184613382565b9695505050505050565b6000815190506133f381612845565b92915050565b60006020828403121561340f5761340e6126c4565b5b600061341d848285016133e4565b91505092915050565b600081905092915050565b600061343c82612789565b6134468185613426565b93506134568185602086016127a5565b80840191505092915050565b600061346e8285613431565b915061347a8284613431565b91508190509392505050565b7f4f776e61626c653a206e6577206f776e657220697320746865207a65726f206160008201527f6464726573730000000000000000000000000000000000000000000000000000602082015250565b60006134e2602683612794565b91506134ed82613486565b604082019050919050565b60006020820190508181036000830152613511816134d5565b9050919050565b7f4e487b7100000000000000000000000000000000000000000000000000000000600052601260045260246000fd5b60006135528261283b565b915061355d8361283b565b92508261356d5761356c613518565b5b828206905092915050565b60006135838261283b565b915061358e8361283b565b92508282019050808211156135a6576135a56132a2565b5b92915050565b60006040820190506135c16000830185612d4e565b6135ce60208301846128d0565b9392505050565b7f4552433732313a207472616e736665722066726f6d20696e636f72726563742060008201527f6f776e6572000000000000000000000000000000000000000000000000000000602082015250565b6000613631602583612794565b915061363c826135d5565b604082019050919050565b6000602082019050818103600083015261366081613624565b9050919050565b7f4552433732313a207472616e7366657220746f20746865207a65726f2061646460008201527f7265737300000000000000000000000000000000000000000000000000000000602082015250565b60006136c3602483612794565b91506136ce82613667565b604082019050919050565b600060208201905081810360008301526136f2816136b6565b9050919050565b7f4f776e61626c653a2063616c6c6572206973206e6f7420746865206f776e6572600082015250565b600061372f602083612794565b915061373a826136f9565b602082019050919050565b6000602082019050818103600083015261375e81613722565b9050919050565b7f4552433732313a20617070726f766520746f2063616c6c657200000000000000600082015250565b600061379b601983612794565b91506137a682613765565b602082019050919050565b600060208201905081810360008301526137ca8161378e565b9050919050565b7f4552433732313a207472616e7366657220746f206e6f6e20455243373231526560008201527f63656976657220696d706c656d656e7465720000000000000000000000000000602082015250565b600061382d603283612794565b9150613838826137d1565b604082019050919050565b6000602082019050818103600083015261385c81613820565b9050919050565b7f45524337323155524953746f726167653a2055524920736574206f66206e6f6e60008201527f6578697374656e7420746f6b656e000000000000000000000000000000000000602082015250565b60006138bf602e83612794565b91506138ca82613863565b604082019050919050565b600060208201905081810360008301526138ee816138b2565b9050919050565b60008190508160005260206000209050919050565b60006020601f8301049050919050565b600082821b905092915050565b6000600883026139577fffffffffffffffffffffffffffffffffffffffffffffffffffffffffffffffff8261391a565b613961868361391a565b95508019841693508086168417925050509392505050565b6000819050919050565b600061399e6139996139948461283b565b613979565b61283b565b9050919050565b6000819050919050565b6139b883613983565b6139cc6139c4826139a5565b848454613927565b825550505050565b600090565b6139e16139d4565b6139ec8184846139af565b505050565b5b81811015613a1057613a056000826139d9565b6001810190506139f2565b5050565b601f821115613a5557613a26816138f5565b613a2f8461390a565b81016020851015613a3e578190505b613a52613a4a8561390a565b8301826139f1565b50505b505050565b600082821c905092915050565b6000613a7860001984600802613a5a565b1980831691505092915050565b6000613a918383613a67565b9150826002028217905092915050565b613aaa82612789565b67ffffffffffffffff811115613ac357613ac2612995565b5b613acd8254612f1f565b613ad8828285613a14565b600060209050601f831160018114613b0b5760008415613af9578287015190505b613b038582613a85565b865550613b6b565b601f198416613b19866138f5565b60005b82811015613b4157848901518255600182019150602085019450602081019050613b1c565b86831015613b5e5784890151613b5a601f891682613a67565b8355505b6001600288020188555050505b505050505050565b6000613b7e8261283b565b9150613b898361283b565b9250828203905081811115613ba157613ba06132a2565b5b92915050565b600081519050919050565b600082825260208201905092915050565b6000613bce82613ba7565b613bd88185613bb2565b9350613be88185602086016127a5565b613bf1816127cf565b840191505092915050565b6000608082019050613c1160008301876128d0565b613c1e60208301866128d0565b613c2b6040830185612966565b8181036060830152613c3d8184613bc3565b905095945050505050565b600081519050613c57816126fa565b92915050565b600060208284031215613c7357613c726126c4565b5b6000613c8184828501613c48565b91505092915050565b7f4552433732313a206d696e7420746f20746865207a65726f2061646472657373600082015250565b6000613cc0602083612794565b9150613ccb82613c8a565b602082019050919050565b60006020820190508181036000830152613cef81613cb3565b9050919050565b7f4552433732313a20746f6b656e20616c7265616479206d696e74656400000000600082015250565b6000613d2c601c83612794565b9150613d3782613cf6565b602082019050919050565b60006020820190508181036000830152613d5b81613d1f565b905091905056fea26469706673582212206ee44b72d4f732f1718dd58e763392286a954fc7c5e24c74340c1090392a748964736f6c63430008110033",
  "linkReferences": {},
  "deployedLinkReferences": {}
}